{
  "contractName": "BAC",
  "abi": [
    {
      "inputs": [],
      "payable": false,
      "stateMutability": "nonpayable",
      "type": "constructor"
    },
    {
      "constant": false,
      "inputs": [
        {
          "name": "materialBatch",
          "type": "string"
        },
        {
          "name": "materialCode",
          "type": "string"
        },
        {
          "name": "materialWeight",
          "type": "string"
        },
        {
          "name": "urlCheckList",
          "type": "string"
        },
        {
          "name": "materialFarm",
          "type": "string"
        },
        {
          "name": "TUCAddress",
          "type": "address"
        }
      ],
      "name": "addBatch",
      "outputs": [],
      "payable": false,
      "stateMutability": "nonpayable",
      "type": "function"
    },
    {
      "constant": false,
      "inputs": [
        {
          "name": "productBatch",
          "type": "string"
        },
        {
          "name": "productCode",
          "type": "string"
        },
        {
          "name": "productNumber",
          "type": "string"
        },
        {
          "name": "productOwner",
          "type": "string"
        },
        {
          "name": "TUCAddress",
          "type": "address"
        }
      ],
      "name": "addProductBatch",
      "outputs": [],
      "payable": false,
      "stateMutability": "nonpayable",
      "type": "function"
    },
    {
      "constant": true,
      "inputs": [
        {
          "name": "id",
          "type": "uint256"
        }
      ],
      "name": "getBatchOfId",
      "outputs": [
        {
          "name": "materialBatch",
          "type": "string"
        },
        {
          "name": "materialCode",
          "type": "string"
        },
        {
          "name": "materialFarm",
          "type": "string"
        },
        {
          "name": "urlCheckList",
          "type": "string"
        },
        {
          "name": "TUCAddress",
          "type": "address"
        },
        {
          "name": "addTime",
          "type": "uint256"
        },
        {
          "name": "materialWeight",
          "type": "string"
        }
      ],
      "payable": false,
      "stateMutability": "view",
      "type": "function"
    },
    {
      "constant": true,
      "inputs": [
        {
          "name": "id",
          "type": "uint256"
        }
      ],
      "name": "getproBatchOfId",
      "outputs": [
        {
          "name": "productBatch",
          "type": "string"
        },
        {
          "name": "productCode",
          "type": "string"
        },
        {
          "name": "productOwner",
          "type": "string"
        },
        {
          "name": "productNumber",
          "type": "string"
        },
        {
          "name": "TUCAddress",
          "type": "address"
        },
        {
          "name": "timestamp",
          "type": "uint256"
        }
      ],
      "payable": false,
      "stateMutability": "view",
      "type": "function"
    },
    {
      "constant": true,
      "inputs": [],
      "name": "getNumberOfBatchs",
      "outputs": [
        {
          "name": "numberOfBatchs",
          "type": "uint256"
        }
      ],
      "payable": false,
      "stateMutability": "view",
      "type": "function"
    },
    {
      "constant": true,
      "inputs": [],
      "name": "getNumberOfproBatchs",
      "outputs": [
        {
          "name": "numberOfproBatchs",
          "type": "uint256"
        }
      ],
      "payable": false,
      "stateMutability": "view",
      "type": "function"
    },
    {
      "constant": true,
      "inputs": [
        {
          "name": "productBatch",
          "type": "string"
        }
      ],
      "name": "getAddressOfBatch",
      "outputs": [
        {
          "name": "addr",
          "type": "address"
        }
      ],
      "payable": false,
      "stateMutability": "view",
      "type": "function"
    },
    {
      "constant": true,
      "inputs": [
        {
          "name": "productBatch",
          "type": "string"
        }
      ],
      "name": "getAddressOfproBatch",
      "outputs": [
        {
          "name": "addr",
          "type": "address"
        }
      ],
      "payable": false,
      "stateMutability": "view",
      "type": "function"
    },
    {
      "constant": false,
      "inputs": [
        {
          "name": "addr",
          "type": "address"
        }
      ],
      "name": "addUser",
      "outputs": [],
      "payable": false,
      "stateMutability": "nonpayable",
      "type": "function"
    },
    {
      "constant": false,
      "inputs": [
        {
          "name": "addr",
          "type": "address"
        }
      ],
      "name": "removeUser",
      "outputs": [],
      "payable": false,
      "stateMutability": "nonpayable",
      "type": "function"
    },
    {
      "constant": true,
      "inputs": [
        {
          "name": "addr",
          "type": "address"
        }
      ],
      "name": "checkUser",
      "outputs": [
        {
          "name": "result",
          "type": "bool"
        }
      ],
      "payable": false,
      "stateMutability": "view",
      "type": "function"
    },
    {
      "constant": false,
      "inputs": [],
      "name": "deleteContract",
      "outputs": [],
      "payable": false,
      "stateMutability": "nonpayable",
      "type": "function"
    }
  ],
  "bytecode": "0x608060405234801561001057600080fd5b5033600960006101000a81548173ffffffffffffffffffffffffffffffffffffffff021916908373ffffffffffffffffffffffffffffffffffffffff16021790555060016007819055506001600881905550611d8d806100716000396000f3006080604052600436106100ba576000357c0100000000000000000000000000000000000000000000000000000000900463ffffffff16806312cf7239146100bf5780631e9d48cf146102e35780632055f2651461033e578063421b2d8b146104995780635a58cd4c146104dc5780637c9b50b6146104f3578063985751881461051e578063d4df11ac14610561578063d626c667146107f1578063efcd3f4f1461089a578063fdc0595d14610943578063feb5e6271461096e575b600080fd5b3480156100cb57600080fd5b506100ea60048036038101908080359060200190929190505050610b0f565b60405180806020018060200180602001806020018773ffffffffffffffffffffffffffffffffffffffff1673ffffffffffffffffffffffffffffffffffffffff16815260200186815260200185810385528b818151815260200191508051906020019080838360005b8381101561016e578082015181840152602081019050610153565b50505050905090810190601f16801561019b5780820380516001836020036101000a031916815260200191505b5085810384528a818151815260200191508051906020019080838360005b838110156101d45780820151818401526020810190506101b9565b50505050905090810190601f1680156102015780820380516001836020036101000a031916815260200191505b50858103835289818151815260200191508051906020019080838360005b8381101561023a57808201518184015260208101905061021f565b50505050905090810190601f1680156102675780820380516001836020036101000a031916815260200191505b50858103825288818151815260200191508051906020019080838360005b838110156102a0578082015181840152602081019050610285565b50505050905090810190601f1680156102cd5780820380516001836020036101000a031916815260200191505b509a505050505050505050505060405180910390f35b3480156102ef57600080fd5b50610324600480360381019080803573ffffffffffffffffffffffffffffffffffffffff169060200190929190505050610e37565b604051808215151515815260200191505060405180910390f35b34801561034a57600080fd5b50610497600480360381019080803590602001908201803590602001908080601f0160208091040260200160405190810160405280939291908181526020018383808284378201915050505050509192919290803590602001908201803590602001908080601f0160208091040260200160405190810160405280939291908181526020018383808284378201915050505050509192919290803590602001908201803590602001908080601f0160208091040260200160405190810160405280939291908181526020018383808284378201915050505050509192919290803590602001908201803590602001908080601f0160208091040260200160405190810160405280939291908181526020018383808284378201915050505050509192919290803573ffffffffffffffffffffffffffffffffffffffff169060200190929190505050610e8c565b005b3480156104a557600080fd5b506104da600480360381019080803573ffffffffffffffffffffffffffffffffffffffff1690602001909291905050506111fb565b005b3480156104e857600080fd5b506104f16112b1565b005b3480156104ff57600080fd5b50610508611348565b6040518082815260200191505060405180910390f35b34801561052a57600080fd5b5061055f600480360381019080803573ffffffffffffffffffffffffffffffffffffffff169060200190929190505050611355565b005b34801561056d57600080fd5b5061058c6004803603810190808035906020019092919050505061140b565b60405180806020018060200180602001806020018873ffffffffffffffffffffffffffffffffffffffff1673ffffffffffffffffffffffffffffffffffffffff1681526020018781526020018060200186810386528d818151815260200191508051906020019080838360005b838110156106145780820151818401526020810190506105f9565b50505050905090810190601f1680156106415780820380516001836020036101000a031916815260200191505b5086810385528c818151815260200191508051906020019080838360005b8381101561067a57808201518184015260208101905061065f565b50505050905090810190601f1680156106a75780820380516001836020036101000a031916815260200191505b5086810384528b818151815260200191508051906020019080838360005b838110156106e05780820151818401526020810190506106c5565b50505050905090810190601f16801561070d5780820380516001836020036101000a031916815260200191505b5086810383528a818151815260200191508051906020019080838360005b8381101561074657808201518184015260208101905061072b565b50505050905090810190601f1680156107735780820380516001836020036101000a031916815260200191505b50868103825287818151815260200191508051906020019080838360005b838110156107ac578082015181840152602081019050610791565b50505050905090810190601f1680156107d95780820380516001836020036101000a031916815260200191505b509c5050505050505050505050505060405180910390f35b3480156107fd57600080fd5b50610858600480360381019080803590602001908201803590602001908080601f01602080910402602001604051908101604052809392919081815260200183838082843782019150505050505091929192905050506117e8565b604051808273ffffffffffffffffffffffffffffffffffffffff1673ffffffffffffffffffffffffffffffffffffffff16815260200191505060405180910390f35b3480156108a657600080fd5b50610901600480360381019080803590602001908201803590602001908080601f016020809104026020016040519081016040528093929190818152602001838380828437820191505050505050919291929050505061187d565b604051808273ffffffffffffffffffffffffffffffffffffffff1673ffffffffffffffffffffffffffffffffffffffff16815260200191505060405180910390f35b34801561094f57600080fd5b50610958611912565b6040518082815260200191505060405180910390f35b34801561097a57600080fd5b50610b0d600480360381019080803590602001908201803590602001908080601f0160208091040260200160405190810160405280939291908181526020018383808284378201915050505050509192919290803590602001908201803590602001908080601f0160208091040260200160405190810160405280939291908181526020018383808284378201915050505050509192919290803590602001908201803590602001908080601f0160208091040260200160405190810160405280939291908181526020018383808284378201915050505050509192919290803590602001908201803590602001908080601f0160208091040260200160405190810160405280939291908181526020018383808284378201915050505050509192919290803590602001908201803590602001908080601f0160208091040260200160405190810160405280939291908181526020018383808284378201915050505050509192919290803573ffffffffffffffffffffffffffffffffffffffff16906020019092919050505061191f565b005b606080606080600080600260008881526020019081526020016000206000018054600181600116156101000203166002900480601f016020809104026020016040519081016040528092919081815260200182805460018160011615610100020316600290048015610bc25780601f10610b9757610100808354040283529160200191610bc2565b820191906000526020600020905b815481529060010190602001808311610ba557829003601f168201915b50505050509550600260008881526020019081526020016000206001018054600181600116156101000203166002900480601f016020809104026020016040519081016040528092919081815260200182805460018160011615610100020316600290048015610c735780601f10610c4857610100808354040283529160200191610c73565b820191906000526020600020905b815481529060010190602001808311610c5657829003601f168201915b50505050509450600260008881526020019081526020016000206002018054600181600116156101000203166002900480601f016020809104026020016040519081016040528092919081815260200182805460018160011615610100020316600290048015610d245780601f10610cf957610100808354040283529160200191610d24565b820191906000526020600020905b815481529060010190602001808311610d0757829003601f168201915b50505050509350600260008881526020019081526020016000206003018054600181600116156101000203166002900480601f016020809104026020016040519081016040528092919081815260200182805460018160011615610100020316600290048015610dd55780601f10610daa57610100808354040283529160200191610dd5565b820191906000526020600020905b815481529060010190602001808311610db857829003601f168201915b505050505092506002600088815260200190815260200160002060040160009054906101000a900473ffffffffffffffffffffffffffffffffffffffff1691506002600088815260200190815260200160002060050154905091939550919395565b60008060008373ffffffffffffffffffffffffffffffffffffffff1673ffffffffffffffffffffffffffffffffffffffff16815260200190815260200160002060009054906101000a900460ff169050919050565b600960009054906101000a900473ffffffffffffffffffffffffffffffffffffffff1673ffffffffffffffffffffffffffffffffffffffff163373ffffffffffffffffffffffffffffffffffffffff16141515610ee857600080fd5b600073ffffffffffffffffffffffffffffffffffffffff166003866040518082805190602001908083835b602083101515610f385780518252602082019150602081019050602083039250610f13565b6001836020036101000a038019825116818451168082178552505050505050905001915050908152602001604051809103902060009054906101000a900473ffffffffffffffffffffffffffffffffffffffff1673ffffffffffffffffffffffffffffffffffffffff16141515610fae57600080fd5b6000600560008373ffffffffffffffffffffffffffffffffffffffff1673ffffffffffffffffffffffffffffffffffffffff16815260200190815260200160002080546001816001161561010002031660029004905014151561101057600080fd5b84600260006008548152602001908152602001600020600001908051906020019061103c929190611cbc565b50836002600060085481526020019081526020016000206001019080519060200190611069929190611cbc565b50826002600060085481526020019081526020016000206003019080519060200190611096929190611cbc565b508160026000600854815260200190815260200160002060020190805190602001906110c3929190611cbc565b508060026000600854815260200190815260200160002060040160006101000a81548173ffffffffffffffffffffffffffffffffffffffff021916908373ffffffffffffffffffffffffffffffffffffffff1602179055504260026000600854815260200190815260200160002060050181905550806004866040518082805190602001908083835b602083101515611171578051825260208201915060208101905060208303925061114c565b6001836020036101000a038019825116818451168082178552505050505050905001915050908152602001604051809103902060006101000a81548173ffffffffffffffffffffffffffffffffffffffff021916908373ffffffffffffffffffffffffffffffffffffffff1602179055506008600081548092919060010191905055505050505050565b600960009054906101000a900473ffffffffffffffffffffffffffffffffffffffff1673ffffffffffffffffffffffffffffffffffffffff163373ffffffffffffffffffffffffffffffffffffffff1614151561125757600080fd5b60016000808373ffffffffffffffffffffffffffffffffffffffff1673ffffffffffffffffffffffffffffffffffffffff16815260200190815260200160002060006101000a81548160ff02191690831515021790555050565b600960009054906101000a900473ffffffffffffffffffffffffffffffffffffffff1673ffffffffffffffffffffffffffffffffffffffff163373ffffffffffffffffffffffffffffffffffffffff1614151561130d57600080fd5b600960009054906101000a900473ffffffffffffffffffffffffffffffffffffffff1673ffffffffffffffffffffffffffffffffffffffff16ff5b6000600160085403905090565b600960009054906101000a900473ffffffffffffffffffffffffffffffffffffffff1673ffffffffffffffffffffffffffffffffffffffff163373ffffffffffffffffffffffffffffffffffffffff161415156113b157600080fd5b60008060008373ffffffffffffffffffffffffffffffffffffffff1673ffffffffffffffffffffffffffffffffffffffff16815260200190815260200160002060006101000a81548160ff02191690831515021790555050565b6060806060806000806060600160008981526020019081526020016000206000018054600181600116156101000203166002900480601f0160208091040260200160405190810160405280929190818152602001828054600181600116156101000203166002900480156114c05780601f10611495576101008083540402835291602001916114c0565b820191906000526020600020905b8154815290600101906020018083116114a357829003601f168201915b50505050509650600160008981526020019081526020016000206002018054600181600116156101000203166002900480601f0160208091040260200160405190810160405280929190818152602001828054600181600116156101000203166002900480156115715780601f1061154657610100808354040283529160200191611571565b820191906000526020600020905b81548152906001019060200180831161155457829003601f168201915b50505050509550600160008981526020019081526020016000206004018054600181600116156101000203166002900480601f0160208091040260200160405190810160405280929190818152602001828054600181600116156101000203166002900480156116225780601f106115f757610100808354040283529160200191611622565b820191906000526020600020905b81548152906001019060200180831161160557829003601f168201915b50505050509450600160008981526020019081526020016000206001018054600181600116156101000203166002900480601f0160208091040260200160405190810160405280929190818152602001828054600181600116156101000203166002900480156116d35780601f106116a8576101008083540402835291602001916116d3565b820191906000526020600020905b8154815290600101906020018083116116b657829003601f168201915b50505050509350600160008981526020019081526020016000206003018054600181600116156101000203166002900480601f0160208091040260200160405190810160405280929190818152602001828054600181600116156101000203166002900480156117845780601f1061175957610100808354040283529160200191611784565b820191906000526020600020905b81548152906001019060200180831161176757829003601f168201915b505050505090506001600089815260200190815260200160002060050160009054906101000a900473ffffffffffffffffffffffffffffffffffffffff16925060016000898152602001908152602001600020600601549150919395979092949650565b60006004826040518082805190602001908083835b60208310151561182257805182526020820191506020810190506020830392506117fd565b6001836020036101000a038019825116818451168082178552505050505050905001915050908152602001604051809103902060009054906101000a900473ffffffffffffffffffffffffffffffffffffffff169050919050565b60006003826040518082805190602001908083835b6020831015156118b75780518252602082019150602081019050602083039250611892565b6001836020036101000a038019825116818451168082178552505050505050905001915050908152602001604051809103902060009054906101000a900473ffffffffffffffffffffffffffffffffffffffff169050919050565b6000600160075403905090565b600960009054906101000a900473ffffffffffffffffffffffffffffffffffffffff1673ffffffffffffffffffffffffffffffffffffffff163373ffffffffffffffffffffffffffffffffffffffff1614151561197b57600080fd5b600073ffffffffffffffffffffffffffffffffffffffff166003876040518082805190602001908083835b6020831015156119cb57805182526020820191506020810190506020830392506119a6565b6001836020036101000a038019825116818451168082178552505050505050905001915050908152602001604051809103902060009054906101000a900473ffffffffffffffffffffffffffffffffffffffff1673ffffffffffffffffffffffffffffffffffffffff16141515611a4157600080fd5b6000600560008373ffffffffffffffffffffffffffffffffffffffff1673ffffffffffffffffffffffffffffffffffffffff168152602001908152602001600020805460018160011615610100020316600290049050141515611aa357600080fd5b856001600060075481526020019081526020016000206000019080519060200190611acf929190611cbc565b50846001600060075481526020019081526020016000206002019080519060200190611afc929190611cbc565b50826001600060075481526020019081526020016000206001019080519060200190611b29929190611cbc565b50816001600060075481526020019081526020016000206004019080519060200190611b56929190611cbc565b50836001600060075481526020019081526020016000206003019080519060200190611b83929190611cbc565b508060016000600754815260200190815260200160002060050160006101000a81548173ffffffffffffffffffffffffffffffffffffffff021916908373ffffffffffffffffffffffffffffffffffffffff1602179055504260016000600754815260200190815260200160002060060181905550806003876040518082805190602001908083835b602083101515611c315780518252602082019150602081019050602083039250611c0c565b6001836020036101000a038019825116818451168082178552505050505050905001915050908152602001604051809103902060006101000a81548173ffffffffffffffffffffffffffffffffffffffff021916908373ffffffffffffffffffffffffffffffffffffffff160217905550600760008154809291906001019190505550505050505050565b828054600181600116156101000203166002900490600052602060002090601f016020900481019282601f10611cfd57805160ff1916838001178555611d2b565b82800160010185558215611d2b579182015b82811115611d2a578251825591602001919060010190611d0f565b5b509050611d389190611d3c565b5090565b611d5e91905b80821115611d5a576000816000905550600101611d42565b5090565b905600a165627a7a7230582074b73f8dcb1b5182152dd4a53dccd677fdc86188ef3029f71b44b38b5f0040750029",
  "source": "pragma solidity ^0.4.23;\r\n\r\ncontract BAC {\r\n\r\n  // Mapping from user address to boolean type\r\n  mapping(address => bool) isAuthorized;\r\n\r\n  // Define struct\r\n  struct batch {\r\n    string _materialBatch;\r\n    string _urlCheckList;\r\n    string _materialCode;\r\n    string _materialWeight;\r\n    string _materialFarm;\r\n    address _TUCAddress;\r\n    uint _addTime;\r\n  }\r\n  struct proBatch {\r\n    string _productBatch;\r\n    string _productCode;\r\n    // string _materialBatch;\r\n    string _productOwner;\r\n    // string _materialCode;\r\n    string _productNumber;\r\n    address _TUCAddress;\r\n    uint _timestamp;\r\n  }\r\n\r\n  mapping(uint => batch) _batchs;\r\n  mapping(uint => proBatch) _proBatchs;\r\n\r\n  mapping(string => address) _batchToAddress;\r\n   mapping(string => address) _probatchToAddress;\r\n\r\n  mapping(address => string) _addressToBatch;\r\n    mapping(address => string) _addressToproBatch;\r\n\r\n  uint _numberOfBatchs;\r\n  uint _numberOfproBatchs;\r\n\r\n  address _productAdmin;\r\n\r\n  // As a prerequisite for some functions\r\n  modifier onlyAdmin {\r\n    require(msg.sender == _productAdmin);\r\n    _;\r\n  }\r\n\r\n  modifier onlyAuthorized(address addr) {\r\n    require(isAuthorized[addr] == true);\r\n    _;\r\n  }\r\n\r\n  // Constructor function\r\n  constructor() public {\r\n    _productAdmin = msg.sender;\r\n    _numberOfBatchs = 1;\r\n    _numberOfproBatchs=1;\r\n  }\r\n\r\n  // Add production batch information\r\n  function addBatch( string materialBatch, string materialCode, string materialWeight,string urlCheckList, string materialFarm, address TUCAddress) public onlyAdmin {\r\n\r\n    require(_batchToAddress[materialBatch] == address(0));\r\n    require(bytes(_addressToBatch[TUCAddress]).length == 0);\r\n\r\n    //require(bytes(productBatch).length == 12);\r\n\r\n    _batchs[_numberOfBatchs]._materialBatch = materialBatch;\r\n    _batchs[_numberOfBatchs]._materialCode = materialCode;\r\n     _batchs[_numberOfBatchs]._urlCheckList = urlCheckList;\r\n      _batchs[_numberOfBatchs]._materialFarm = materialFarm;\r\n      _batchs[_numberOfBatchs]._materialWeight = materialWeight;\r\n    _batchs[_numberOfBatchs]._TUCAddress = TUCAddress;\r\n    _batchs[_numberOfBatchs]._addTime = now;\r\n\r\n    _batchToAddress[materialBatch] = TUCAddress;\r\n\r\n    _numberOfBatchs++;\r\n\r\n  }\r\n   function addProductBatch( string productBatch, string productCode, string productNumber,string productOwner, address TUCAddress) public onlyAdmin {\r\n\r\n    require(_batchToAddress[productBatch] == address(0));\r\n    require(bytes(_addressToBatch[TUCAddress]).length == 0);\r\n\r\n    //require(bytes(productBatch).length == 12);\r\n\r\n    _proBatchs[_numberOfproBatchs]._productBatch = productBatch;\r\n    _proBatchs[_numberOfproBatchs]._productCode = productCode;\r\n    _proBatchs[_numberOfproBatchs]._productNumber = productNumber;\r\n    _proBatchs[_numberOfproBatchs]._productOwner = productOwner;\r\n    _proBatchs[_numberOfproBatchs]._TUCAddress = TUCAddress;\r\n    _proBatchs[_numberOfproBatchs]._timestamp = now;\r\n\r\n    _probatchToAddress[productBatch] = TUCAddress;\r\n\r\n    _numberOfproBatchs++;\r\n  }\r\n\r\n  // Get batch information by id\r\n  function getBatchOfId(uint id) constant public returns( string materialBatch,string materialCode, string materialFarm,string urlCheckList, address TUCAddress, uint addTime,string materialWeight) {\r\n\r\n    // productBatch = _batchs[id]._productBatch;\r\n    materialBatch = _batchs[id]._materialBatch;\r\n    materialCode = _batchs[id]._materialCode;\r\n    materialFarm = _batchs[id]._materialFarm;\r\n    urlCheckList = _batchs[id]._urlCheckList;\r\n    materialWeight = _batchs[id]._materialWeight;\r\n    TUCAddress = _batchs[id]._TUCAddress;\r\n    addTime = _batchs[id]._addTime;\r\n\r\n  }\r\n  function getproBatchOfId(uint id) constant public returns( string productBatch,string productCode, string productOwner,string productNumber, address TUCAddress, uint timestamp) {\r\n\r\n    // productBatch = _batchs[id]._productBatch;\r\n    productBatch = _proBatchs[id]._productBatch;\r\n    productCode = _proBatchs[id]._productCode;\r\n    productOwner = _proBatchs[id]._productOwner;\r\n    productNumber = _proBatchs[id]._productNumber;\r\n    TUCAddress = _proBatchs[id]._TUCAddress;\r\n    timestamp = _proBatchs[id]._timestamp;\r\n\r\n  }\r\n\r\n  // Get the number of batches\r\n  function getNumberOfBatchs() constant public returns(uint numberOfBatchs) {\r\n    numberOfBatchs = _numberOfBatchs - 1;\r\n  }\r\n   function getNumberOfproBatchs() constant public returns(uint numberOfproBatchs) {\r\n    numberOfproBatchs = _numberOfproBatchs - 1;\r\n  }\r\n\r\n  function getAddressOfBatch(string productBatch) constant public returns(address addr) {\r\n    addr = _batchToAddress[productBatch];\r\n  }\r\n  function getAddressOfproBatch(string productBatch) constant public returns(address addr) {\r\n    addr = _probatchToAddress[productBatch];\r\n  }\r\n\r\n  // Add user to authorization list\r\n  function addUser(address addr) public onlyAdmin {\r\n    isAuthorized[addr] = true;\r\n  }\r\n\r\n  // Remove user\r\n  function removeUser(address addr) public onlyAdmin {\r\n    isAuthorized[addr] = false;\r\n  }\r\n\r\n  // Check if the user is authorized\r\n  function checkUser(address addr) constant public returns(bool result) {\r\n    result = isAuthorized[addr];\r\n  }\r\n\r\n  // Destroy the contract\r\n  function deleteContract() onlyAdmin public {\r\n    selfdestruct(_productAdmin);\r\n  }\r\n\r\n}\r\n",
  "sourcePath": "/Users/macbook/Desktop/DemoSystem/supplieschain/contracts/BAC.sol",
  "compiler": {
    "name": "solc",
    "version": "0.4.23+commit.124ca40d.Emscripten.clang"
  },
  "schemaVersion": "3.4.1",
  "updatedAt": "2021-10-14T05:50:50.638Z",
  "devdoc": {
    "methods": {}
  },
  "userdoc": {
    "methods": {}
  }
}