{
  "contractName": "PRC",
  "abi": [
    {
      "inputs": [],
      "payable": false,
      "stateMutability": "nonpayable",
      "type": "constructor"
    },
    {
      "constant": false,
      "inputs": [
        {
          "name": "productName",
          "type": "string"
        },
        {
          "name": "productCode",
          "type": "string"
        },
        {
          "name": "factoryName",
          "type": "string"
        },
        {
          "name": "BACAddress",
          "type": "address"
        }
      ],
      "name": "productRegister",
      "outputs": [],
      "payable": false,
      "stateMutability": "nonpayable",
      "type": "function"
    },
    {
      "constant": false,
      "inputs": [
        {
          "name": "materialName",
          "type": "string"
        },
        {
          "name": "materialCode",
          "type": "string"
        },
        {
          "name": "materialFarm",
          "type": "string"
        },
        {
          "name": "BACAddress",
          "type": "address"
        }
      ],
      "name": "materialRegister",
      "outputs": [],
      "payable": false,
      "stateMutability": "nonpayable",
      "type": "function"
    },
    {
      "constant": true,
      "inputs": [],
      "name": "getNumberOfProducts",
      "outputs": [
        {
          "name": "numberOfProducts",
          "type": "uint256"
        }
      ],
      "payable": false,
      "stateMutability": "view",
      "type": "function"
    },
    {
      "constant": true,
      "inputs": [],
      "name": "getNumberOfMaterials",
      "outputs": [
        {
          "name": "numberOfMaterials",
          "type": "uint256"
        }
      ],
      "payable": false,
      "stateMutability": "view",
      "type": "function"
    },
    {
      "constant": true,
      "inputs": [
        {
          "name": "id",
          "type": "uint256"
        }
      ],
      "name": "getProductOfId",
      "outputs": [
        {
          "name": "productName",
          "type": "string"
        },
        {
          "name": "productCode",
          "type": "string"
        },
        {
          "name": "factoryName",
          "type": "string"
        },
        {
          "name": "timestamp",
          "type": "uint256"
        },
        {
          "name": "BACAddress",
          "type": "address"
        }
      ],
      "payable": false,
      "stateMutability": "view",
      "type": "function"
    },
    {
      "constant": true,
      "inputs": [
        {
          "name": "id",
          "type": "uint256"
        }
      ],
      "name": "getMaterialOfId",
      "outputs": [
        {
          "name": "materialName",
          "type": "string"
        },
        {
          "name": "materialCode",
          "type": "string"
        },
        {
          "name": "materialFarm",
          "type": "string"
        },
        {
          "name": "timestamp",
          "type": "uint256"
        },
        {
          "name": "BACAddress",
          "type": "address"
        }
      ],
      "payable": false,
      "stateMutability": "view",
      "type": "function"
    },
    {
      "constant": true,
      "inputs": [
        {
          "name": "productCode",
          "type": "string"
        }
      ],
      "name": "getIdOfCode",
      "outputs": [
        {
          "name": "id",
          "type": "uint256"
        }
      ],
      "payable": false,
      "stateMutability": "view",
      "type": "function"
    },
    {
      "constant": true,
      "inputs": [
        {
          "name": "productCode",
          "type": "string"
        }
      ],
      "name": "getAddressOfCode",
      "outputs": [
        {
          "name": "addr",
          "type": "address"
        }
      ],
      "payable": false,
      "stateMutability": "view",
      "type": "function"
    },
    {
      "constant": true,
      "inputs": [
        {
          "name": "materialCode",
          "type": "string"
        }
      ],
      "name": "getIdOfMaterialCode",
      "outputs": [
        {
          "name": "id",
          "type": "uint256"
        }
      ],
      "payable": false,
      "stateMutability": "view",
      "type": "function"
    },
    {
      "constant": true,
      "inputs": [
        {
          "name": "materialCode",
          "type": "string"
        }
      ],
      "name": "getAddressOfMaterialCode",
      "outputs": [
        {
          "name": "addr",
          "type": "address"
        }
      ],
      "payable": false,
      "stateMutability": "view",
      "type": "function"
    },
    {
      "constant": false,
      "inputs": [
        {
          "name": "addr",
          "type": "address"
        }
      ],
      "name": "addUser",
      "outputs": [],
      "payable": false,
      "stateMutability": "nonpayable",
      "type": "function"
    },
    {
      "constant": false,
      "inputs": [
        {
          "name": "addr",
          "type": "address"
        }
      ],
      "name": "removeUser",
      "outputs": [],
      "payable": false,
      "stateMutability": "nonpayable",
      "type": "function"
    },
    {
      "constant": true,
      "inputs": [
        {
          "name": "addr",
          "type": "address"
        }
      ],
      "name": "checkUser",
      "outputs": [
        {
          "name": "result",
          "type": "bool"
        }
      ],
      "payable": false,
      "stateMutability": "view",
      "type": "function"
    },
    {
      "constant": false,
      "inputs": [],
      "name": "deleteContract",
      "outputs": [],
      "payable": false,
      "stateMutability": "nonpayable",
      "type": "function"
    }
  ],
  "bytecode": "0x608060405234801561001057600080fd5b5033600760006101000a81548173ffffffffffffffffffffffffffffffffffffffff021916908373ffffffffffffffffffffffffffffffffffffffff16021790555060016005819055506001600681905550611b9d806100716000396000f3006080604052600436106100d0576000357c0100000000000000000000000000000000000000000000000000000000900463ffffffff1680630320354f146100d55780631e9d48cf146101525780633ffd81fb146101ad578063421b2d8b146101d85780635a58cd4c1461021b578063746bdc8d14610232578063814f9a19146102db5780638ffd8ceb146103f05780639857518814610505578063ac0b86df14610548578063adec386214610700578063b53ffad8146108b8578063f43574b114610961578063f77a7f7f1461098c575b600080fd5b3480156100e157600080fd5b5061013c600480360381019080803590602001908201803590602001908080601f0160208091040260200160405190810160405280939291908181526020018383808284378201915050505050509192919290505050610a09565b6040518082815260200191505060405180910390f35b34801561015e57600080fd5b50610193600480360381019080803573ffffffffffffffffffffffffffffffffffffffff169060200190929190505050610a7e565b604051808215151515815260200191505060405180910390f35b3480156101b957600080fd5b506101c2610ad3565b6040518082815260200191505060405180910390f35b3480156101e457600080fd5b50610219600480360381019080803573ffffffffffffffffffffffffffffffffffffffff169060200190929190505050610ae0565b005b34801561022757600080fd5b50610230610b96565b005b34801561023e57600080fd5b50610299600480360381019080803590602001908201803590602001908080601f0160208091040260200160405190810160405280939291908181526020018383808284378201915050505050509192919290505050610c2d565b604051808273ffffffffffffffffffffffffffffffffffffffff1673ffffffffffffffffffffffffffffffffffffffff16815260200191505060405180910390f35b3480156102e757600080fd5b506103ee600480360381019080803590602001908201803590602001908080601f0160208091040260200160405190810160405280939291908181526020018383808284378201915050505050509192919290803590602001908201803590602001908080601f0160208091040260200160405190810160405280939291908181526020018383808284378201915050505050509192919290803590602001908201803590602001908080601f0160208091040260200160405190810160405280939291908181526020018383808284378201915050505050509192919290803573ffffffffffffffffffffffffffffffffffffffff169060200190929190505050610cc2565b005b3480156103fc57600080fd5b50610503600480360381019080803590602001908201803590602001908080601f0160208091040260200160405190810160405280939291908181526020018383808284378201915050505050509192919290803590602001908201803590602001908080601f0160208091040260200160405190810160405280939291908181526020018383808284378201915050505050509192919290803590602001908201803590602001908080601f0160208091040260200160405190810160405280939291908181526020018383808284378201915050505050509192919290803573ffffffffffffffffffffffffffffffffffffffff16906020019092919050505061105b565b005b34801561051157600080fd5b50610546600480360381019080803573ffffffffffffffffffffffffffffffffffffffff169060200190929190505050611413565b005b34801561055457600080fd5b50610573600480360381019080803590602001909291905050506114c9565b604051808060200180602001806020018681526020018573ffffffffffffffffffffffffffffffffffffffff1673ffffffffffffffffffffffffffffffffffffffff168152602001848103845289818151815260200191508051906020019080838360005b838110156105f35780820151818401526020810190506105d8565b50505050905090810190601f1680156106205780820380516001836020036101000a031916815260200191505b50848103835288818151815260200191508051906020019080838360005b8381101561065957808201518184015260208101905061063e565b50505050905090810190601f1680156106865780820380516001836020036101000a031916815260200191505b50848103825287818151815260200191508051906020019080838360005b838110156106bf5780820151818401526020810190506106a4565b50505050905090810190601f1680156106ec5780820380516001836020036101000a031916815260200191505b509850505050505050505060405180910390f35b34801561070c57600080fd5b5061072b6004803603810190808035906020019092919050505061173f565b604051808060200180602001806020018681526020018573ffffffffffffffffffffffffffffffffffffffff1673ffffffffffffffffffffffffffffffffffffffff168152602001848103845289818151815260200191508051906020019080838360005b838110156107ab578082015181840152602081019050610790565b50505050905090810190601f1680156107d85780820380516001836020036101000a031916815260200191505b50848103835288818151815260200191508051906020019080838360005b838110156108115780820151818401526020810190506107f6565b50505050905090810190601f16801561083e5780820380516001836020036101000a031916815260200191505b50848103825287818151815260200191508051906020019080838360005b8381101561087757808201518184015260208101905061085c565b50505050905090810190601f1680156108a45780820380516001836020036101000a031916815260200191505b509850505050505050505060405180910390f35b3480156108c457600080fd5b5061091f600480360381019080803590602001908201803590602001908080601f01602080910402602001604051908101604052809392919081815260200183838082843782019150505050505091929192905050506119b5565b604051808273ffffffffffffffffffffffffffffffffffffffff1673ffffffffffffffffffffffffffffffffffffffff16815260200191505060405180910390f35b34801561096d57600080fd5b50610976611a4a565b6040518082815260200191505060405180910390f35b34801561099857600080fd5b506109f3600480360381019080803590602001908201803590602001908080601f0160208091040260200160405190810160405280939291908181526020018383808284378201915050505050509192919290505050611a57565b6040518082815260200191505060405180910390f35b60006004826040518082805190602001908083835b602083101515610a435780518252602082019150602081019050602083039250610a1e565b6001836020036101000a0380198251168184511680821785525050505050509050019150509081526020016040518091039020549050919050565b60008060008373ffffffffffffffffffffffffffffffffffffffff1673ffffffffffffffffffffffffffffffffffffffff16815260200190815260200160002060009054906101000a900460ff169050919050565b6000600160055403905090565b600760009054906101000a900473ffffffffffffffffffffffffffffffffffffffff1673ffffffffffffffffffffffffffffffffffffffff163373ffffffffffffffffffffffffffffffffffffffff16141515610b3c57600080fd5b60016000808373ffffffffffffffffffffffffffffffffffffffff1673ffffffffffffffffffffffffffffffffffffffff16815260200190815260200160002060006101000a81548160ff02191690831515021790555050565b600760009054906101000a900473ffffffffffffffffffffffffffffffffffffffff1673ffffffffffffffffffffffffffffffffffffffff163373ffffffffffffffffffffffffffffffffffffffff16141515610bf257600080fd5b600760009054906101000a900473ffffffffffffffffffffffffffffffffffffffff1673ffffffffffffffffffffffffffffffffffffffff16ff5b6000600b826040518082805190602001908083835b602083101515610c675780518252602082019150602081019050602083039250610c42565b6001836020036101000a038019825116818451168082178552505050505050905001915050908152602001604051809103902060009054906101000a900473ffffffffffffffffffffffffffffffffffffffff169050919050565b600760009054906101000a900473ffffffffffffffffffffffffffffffffffffffff1673ffffffffffffffffffffffffffffffffffffffff163373ffffffffffffffffffffffffffffffffffffffff16141515610d1e57600080fd5b60006008846040518082805190602001908083835b602083101515610d585780518252602082019150602081019050602083039250610d33565b6001836020036101000a0380198251168184511680821785525050505050509050019150509081526020016040518091039020805460018160011615610100020316600290049050141515610dac57600080fd5b836008846040518082805190602001908083835b602083101515610de55780518252602082019150602081019050602083039250610dc0565b6001836020036101000a03801982511681845116808217855250505050505090500191505090815260200160405180910390209080519060200190610e2b929190611acc565b506005546003846040518082805190602001908083835b602083101515610e675780518252602082019150602081019050602083039250610e42565b6001836020036101000a03801982511681845116808217855250505050505090500191505090815260200160405180910390208190555080600a846040518082805190602001908083835b602083101515610ed75780518252602082019150602081019050602083039250610eb2565b6001836020036101000a038019825116818451168082178552505050505050905001915050908152602001604051809103902060006101000a81548173ffffffffffffffffffffffffffffffffffffffff021916908373ffffffffffffffffffffffffffffffffffffffff160217905550836001600060055481526020019081526020016000206000019080519060200190610f74929190611acc565b50826001600060055481526020019081526020016000206001019080519060200190610fa1929190611acc565b50816001600060055481526020019081526020016000206002019080519060200190610fce929190611acc565b5042600160006005548152602001908152602001600020600301819055508060016000600554815260200190815260200160002060040160006101000a81548173ffffffffffffffffffffffffffffffffffffffff021916908373ffffffffffffffffffffffffffffffffffffffff16021790555060056000815480929190600101919050555050505050565b600760009054906101000a900473ffffffffffffffffffffffffffffffffffffffff1673ffffffffffffffffffffffffffffffffffffffff163373ffffffffffffffffffffffffffffffffffffffff161415156110b757600080fd5b60006009846040518082805190602001908083835b6020831015156110f157805182526020820191506020810190506020830392506110cc565b6001836020036101000a038019825116818451168082178552505050505050905001915050908152602001604051809103902080546001816001161561010002031660029004905014151561114557600080fd5b600384511015801561115957506040845111155b151561116457600080fd5b836009846040518082805190602001908083835b60208310151561119d5780518252602082019150602081019050602083039250611178565b6001836020036101000a038019825116818451168082178552505050505050905001915050908152602001604051809103902090805190602001906111e3929190611acc565b506006546004846040518082805190602001908083835b60208310151561121f57805182526020820191506020810190506020830392506111fa565b6001836020036101000a03801982511681845116808217855250505050505090500191505090815260200160405180910390208190555080600b846040518082805190602001908083835b60208310151561128f578051825260208201915060208101905060208303925061126a565b6001836020036101000a038019825116818451168082178552505050505050905001915050908152602001604051809103902060006101000a81548173ffffffffffffffffffffffffffffffffffffffff021916908373ffffffffffffffffffffffffffffffffffffffff16021790555083600260006006548152602001908152602001600020600001908051906020019061132c929190611acc565b50826002600060065481526020019081526020016000206001019080519060200190611359929190611acc565b50816002600060065481526020019081526020016000206002019080519060200190611386929190611acc565b5042600260006006548152602001908152602001600020600301819055508060026000600654815260200190815260200160002060040160006101000a81548173ffffffffffffffffffffffffffffffffffffffff021916908373ffffffffffffffffffffffffffffffffffffffff16021790555060066000815480929190600101919050555050505050565b600760009054906101000a900473ffffffffffffffffffffffffffffffffffffffff1673ffffffffffffffffffffffffffffffffffffffff163373ffffffffffffffffffffffffffffffffffffffff1614151561146f57600080fd5b60008060008373ffffffffffffffffffffffffffffffffffffffff1673ffffffffffffffffffffffffffffffffffffffff16815260200190815260200160002060006101000a81548160ff02191690831515021790555050565b6060806060600080600260008781526020019081526020016000206000018054600181600116156101000203166002900480601f01602080910402602001604051908101604052809291908181526020018280546001816001161561010002031660029004801561157b5780601f106115505761010080835404028352916020019161157b565b820191906000526020600020905b81548152906001019060200180831161155e57829003601f168201915b50505050509450600260008781526020019081526020016000206001018054600181600116156101000203166002900480601f01602080910402602001604051908101604052809291908181526020018280546001816001161561010002031660029004801561162c5780601f106116015761010080835404028352916020019161162c565b820191906000526020600020905b81548152906001019060200180831161160f57829003601f168201915b50505050509350600260008781526020019081526020016000206002018054600181600116156101000203166002900480601f0160208091040260200160405190810160405280929190818152602001828054600181600116156101000203166002900480156116dd5780601f106116b2576101008083540402835291602001916116dd565b820191906000526020600020905b8154815290600101906020018083116116c057829003601f168201915b50505050509250600260008781526020019081526020016000206003015491506002600087815260200190815260200160002060040160009054906101000a900473ffffffffffffffffffffffffffffffffffffffff16905091939590929450565b6060806060600080600160008781526020019081526020016000206000018054600181600116156101000203166002900480601f0160208091040260200160405190810160405280929190818152602001828054600181600116156101000203166002900480156117f15780601f106117c6576101008083540402835291602001916117f1565b820191906000526020600020905b8154815290600101906020018083116117d457829003601f168201915b50505050509450600160008781526020019081526020016000206001018054600181600116156101000203166002900480601f0160208091040260200160405190810160405280929190818152602001828054600181600116156101000203166002900480156118a25780601f10611877576101008083540402835291602001916118a2565b820191906000526020600020905b81548152906001019060200180831161188557829003601f168201915b50505050509350600160008781526020019081526020016000206002018054600181600116156101000203166002900480601f0160208091040260200160405190810160405280929190818152602001828054600181600116156101000203166002900480156119535780601f1061192857610100808354040283529160200191611953565b820191906000526020600020905b81548152906001019060200180831161193657829003601f168201915b50505050509250600160008781526020019081526020016000206003015491506001600087815260200190815260200160002060040160009054906101000a900473ffffffffffffffffffffffffffffffffffffffff16905091939590929450565b6000600a826040518082805190602001908083835b6020831015156119ef57805182526020820191506020810190506020830392506119ca565b6001836020036101000a038019825116818451168082178552505050505050905001915050908152602001604051809103902060009054906101000a900473ffffffffffffffffffffffffffffffffffffffff169050919050565b6000600160065403905090565b60006003826040518082805190602001908083835b602083101515611a915780518252602082019150602081019050602083039250611a6c565b6001836020036101000a0380198251168184511680821785525050505050509050019150509081526020016040518091039020549050919050565b828054600181600116156101000203166002900490600052602060002090601f016020900481019282601f10611b0d57805160ff1916838001178555611b3b565b82800160010185558215611b3b579182015b82811115611b3a578251825591602001919060010190611b1f565b5b509050611b489190611b4c565b5090565b611b6e91905b80821115611b6a576000816000905550600101611b52565b5090565b905600a165627a7a723058208527e63e99d63b3106c88cebc2709719b1016006c1ee3d29b44a7b07e58ca9320029",
  "source": "pragma solidity ^ 0.4.23;\r\n\r\ncontract PRC {\r\n\r\n  // Mapping from user address to boolean type\r\n  mapping(address => bool) isAuthorized;\r\n\r\n  // Define struct\r\n  struct product {\r\n    string _productName;\r\n    string _productCode;\r\n    string _productOwner;\r\n    uint _timestamp;\r\n    address _BACAddress;\r\n  }\r\n  struct material {\r\n    string _materialName;\r\n    string _materialCode;\r\n    string _materialFarm;\r\n    uint _timestamp;\r\n    address _BACAddress;\r\n  }\r\n\r\n  mapping(uint => product) _products;\r\n  mapping(uint => material) _materials;\r\n\r\n  mapping(string => uint) _productCodeToId;\r\n  mapping(string => uint) _materialCodeToId;\r\n\r\n  uint _numberOfProducts;\r\n  uint _numberOfMaterials;\r\n\r\n  address _admin;\r\n\r\n  mapping(string => string) _productCodeToName;\r\n  mapping(string => string) _materialCodeToName;\r\n  mapping(string => address) _productCodeToBACAddress;\r\n mapping(string => address) _materialCodeToBACAddress;\r\n\r\n  // As a prerequisite for some functions\r\n  modifier onlyAdmin {\r\n    require(msg.sender == _admin);\r\n    _;\r\n  }\r\n\r\n  modifier onlyAuthorized(address addr) {\r\n    require(isAuthorized[addr] == true);\r\n    _;\r\n  }\r\n\r\n  // Constructor function\r\n  constructor() public {\r\n    _admin = msg.sender;\r\n    _numberOfProducts = 1;\r\n    _numberOfMaterials =1;\r\n  }\r\n\r\n  // Register product information\r\n  function productRegister(string productName, string productCode, string factoryName, address BACAddress) public onlyAdmin {\r\n\r\n    require(bytes(_productCodeToName[productCode]).length == 0);\r\n\r\n\r\n    _productCodeToName[productCode] = productName;\r\n    _productCodeToId[productCode] = _numberOfProducts;\r\n    _productCodeToBACAddress[productCode] = BACAddress;\r\n\r\n    _products[_numberOfProducts]._productName = productName;\r\n    _products[_numberOfProducts]._productCode = productCode;\r\n    _products[_numberOfProducts]._productOwner = factoryName;\r\n    _products[_numberOfProducts]._timestamp = now;\r\n    _products[_numberOfProducts]._BACAddress = BACAddress;\r\n\r\n    _numberOfProducts++;\r\n\r\n  }\r\n\r\n  // Register raw material information\r\n  function materialRegister(string materialName, string materialCode, string materialFarm, address BACAddress) public onlyAdmin {\r\n\r\n    require(bytes(_materialCodeToName[materialCode]).length == 0);\r\n\r\n    require(bytes(materialName).length >= 3 && bytes(materialName).length <= 64);\r\n\r\n    _materialCodeToName[materialCode] = materialName;\r\n    _materialCodeToId[materialCode] = _numberOfMaterials;\r\n    _materialCodeToBACAddress[materialCode] = BACAddress;\r\n\r\n    _materials[_numberOfMaterials]._materialName = materialName;\r\n    _materials[_numberOfMaterials]._materialCode = materialCode;\r\n    _materials[_numberOfMaterials]._materialFarm = materialFarm;\r\n    _materials[_numberOfMaterials]._timestamp = now;\r\n    _materials[_numberOfMaterials]._BACAddress = BACAddress;\r\n\r\n    _numberOfMaterials++;\r\n\r\n  }\r\n\r\n  // Get the number of products\r\n  function getNumberOfProducts() constant public returns(uint numberOfProducts) {\r\n    numberOfProducts = _numberOfProducts - 1;\r\n  }\r\n  function getNumberOfMaterials() constant public returns(uint numberOfMaterials) {\r\n    numberOfMaterials = _numberOfMaterials - 1;\r\n  }\r\n\r\n  // Get product information by id\r\n  function getProductOfId(uint id) constant public returns(string productName, string productCode,  string factoryName, uint timestamp, address BACAddress) {\r\n\r\n    productName = _products[id]._productName;\r\n    productCode = _products[id]._productCode;\r\n    factoryName = _products[id]._productOwner;\r\n    timestamp = _products[id]._timestamp;\r\n    BACAddress = _products[id]._BACAddress;\r\n  }\r\n  function getMaterialOfId(uint id) constant public returns(string materialName, string materialCode, string materialFarm, uint timestamp, address BACAddress) {\r\n\r\n    materialName = _materials[id]._materialName;\r\n    materialCode = _materials[id]._materialCode;\r\n    materialFarm = _materials[id]._materialFarm;\r\n    timestamp = _materials[id]._timestamp;\r\n    BACAddress = _materials[id]._BACAddress;\r\n  }\r\n\r\n  function getIdOfCode(string productCode) constant public returns(uint id) {\r\n    id = _productCodeToId[productCode];\r\n  }\r\n\r\n  function getAddressOfCode(string productCode) constant public returns(address addr) {\r\n    addr = _productCodeToBACAddress[productCode];\r\n  }\r\n\r\n function getIdOfMaterialCode(string materialCode) constant public returns(uint id) {\r\n    id = _materialCodeToId[materialCode];\r\n  }\r\n\r\n  function getAddressOfMaterialCode(string materialCode) constant public returns(address addr) {\r\n    addr = _materialCodeToBACAddress[materialCode];\r\n  }\r\n  // Add user to authorization list\r\n  function addUser(address addr) public onlyAdmin {\r\n    isAuthorized[addr] = true;\r\n  }\r\n\r\n  // Remove user\r\n  function removeUser(address addr) public onlyAdmin {\r\n    isAuthorized[addr] = false;\r\n  }\r\n\r\n  // Check if the user is authorized\r\n  function checkUser(address addr) constant public returns(bool result) {\r\n    result = isAuthorized[addr];\r\n  }\r\n\r\n  // Destroy the contract\r\n  function deleteContract() public onlyAdmin {\r\n    selfdestruct(_admin);\r\n  }\r\n\r\n}\r\n",
  "sourcePath": "/Users/macbook/Desktop/DemoSystem/supplieschain/contracts/PRC.sol",
  "compiler": {
    "name": "solc",
    "version": "0.4.23+commit.124ca40d.Emscripten.clang"
  },
  "schemaVersion": "3.4.1",
  "updatedAt": "2021-10-14T05:50:51.142Z",
  "networkType": "ethereum",
  "devdoc": {
    "methods": {}
  },
  "userdoc": {
    "methods": {}
  }
}